{
  "contractName": "EcommerceStore",
  "abi": [
    {
      "constant": true,
      "inputs": [],
      "name": "productIndex",
      "outputs": [
        {
          "name": "",
          "type": "uint256"
        }
      ],
      "payable": false,
      "stateMutability": "view",
      "type": "function"
    },
    {
      "inputs": [],
      "payable": false,
      "stateMutability": "nonpayable",
      "type": "constructor"
    },
    {
      "anonymous": false,
      "inputs": [
        {
          "indexed": false,
          "name": "_productId",
          "type": "uint256"
        },
        {
          "indexed": false,
          "name": "_name",
          "type": "string"
        },
        {
          "indexed": false,
          "name": "_category",
          "type": "string"
        },
        {
          "indexed": false,
          "name": "_imageLink",
          "type": "string"
        },
        {
          "indexed": false,
          "name": "_descLink",
          "type": "string"
        },
        {
          "indexed": false,
          "name": "_auctionStartTime",
          "type": "uint256"
        },
        {
          "indexed": false,
          "name": "_auctionEndTime",
          "type": "uint256"
        },
        {
          "indexed": false,
          "name": "_startPrice",
          "type": "uint256"
        },
        {
          "indexed": false,
          "name": "_productCondition",
          "type": "uint256"
        }
      ],
      "name": "NewProduct",
      "type": "event"
    },
    {
      "constant": false,
      "inputs": [
        {
          "name": "_productId",
          "type": "uint256"
        }
      ],
      "name": "finalizeAuction",
      "outputs": [],
      "payable": false,
      "stateMutability": "nonpayable",
      "type": "function"
    },
    {
      "constant": false,
      "inputs": [
        {
          "name": "_productId",
          "type": "uint256"
        }
      ],
      "name": "releaseAmountToSeller",
      "outputs": [],
      "payable": false,
      "stateMutability": "nonpayable",
      "type": "function"
    },
    {
      "constant": false,
      "inputs": [
        {
          "name": "_productId",
          "type": "uint256"
        }
      ],
      "name": "refundAmountToBuyer",
      "outputs": [],
      "payable": false,
      "stateMutability": "nonpayable",
      "type": "function"
    },
    {
      "constant": true,
      "inputs": [
        {
          "name": "_productId",
          "type": "uint256"
        }
      ],
      "name": "escrowAddressForProduct",
      "outputs": [
        {
          "name": "",
          "type": "address"
        }
      ],
      "payable": false,
      "stateMutability": "view",
      "type": "function"
    },
    {
      "constant": true,
      "inputs": [
        {
          "name": "_productId",
          "type": "uint256"
        }
      ],
      "name": "escrowInfo",
      "outputs": [
        {
          "name": "",
          "type": "address"
        },
        {
          "name": "",
          "type": "address"
        },
        {
          "name": "",
          "type": "address"
        },
        {
          "name": "",
          "type": "bool"
        },
        {
          "name": "",
          "type": "uint256"
        },
        {
          "name": "",
          "type": "uint256"
        }
      ],
      "payable": false,
      "stateMutability": "view",
      "type": "function"
    },
    {
      "constant": false,
      "inputs": [
        {
          "name": "_name",
          "type": "string"
        },
        {
          "name": "_category",
          "type": "string"
        },
        {
          "name": "_imageLink",
          "type": "string"
        },
        {
          "name": "_descLink",
          "type": "string"
        },
        {
          "name": "_auctionStartTime",
          "type": "uint256"
        },
        {
          "name": "_auctionEndTime",
          "type": "uint256"
        },
        {
          "name": "_startPrice",
          "type": "uint256"
        },
        {
          "name": "_productCondition",
          "type": "uint256"
        }
      ],
      "name": "addProductToStore",
      "outputs": [],
      "payable": false,
      "stateMutability": "nonpayable",
      "type": "function"
    },
    {
      "constant": true,
      "inputs": [
        {
          "name": "_productId",
          "type": "uint256"
        }
      ],
      "name": "getProduct",
      "outputs": [
        {
          "name": "",
          "type": "uint256"
        },
        {
          "name": "",
          "type": "string"
        },
        {
          "name": "",
          "type": "string"
        },
        {
          "name": "",
          "type": "string"
        },
        {
          "name": "",
          "type": "string"
        },
        {
          "name": "",
          "type": "uint256"
        },
        {
          "name": "",
          "type": "uint256"
        },
        {
          "name": "",
          "type": "uint256"
        },
        {
          "name": "",
          "type": "uint8"
        },
        {
          "name": "",
          "type": "uint8"
        }
      ],
      "payable": false,
      "stateMutability": "view",
      "type": "function"
    },
    {
      "constant": false,
      "inputs": [
        {
          "name": "_productId",
          "type": "uint256"
        },
        {
          "name": "_bid",
          "type": "bytes32"
        }
      ],
      "name": "bid",
      "outputs": [
        {
          "name": "",
          "type": "bool"
        }
      ],
      "payable": true,
      "stateMutability": "payable",
      "type": "function"
    },
    {
      "constant": false,
      "inputs": [
        {
          "name": "_productId",
          "type": "uint256"
        },
        {
          "name": "_amount",
          "type": "string"
        },
        {
          "name": "_secret",
          "type": "string"
        }
      ],
      "name": "revealBid",
      "outputs": [],
      "payable": false,
      "stateMutability": "nonpayable",
      "type": "function"
    },
    {
      "constant": true,
      "inputs": [
        {
          "name": "_productId",
          "type": "uint256"
        }
      ],
      "name": "highestBidderInfo",
      "outputs": [
        {
          "name": "",
          "type": "address"
        },
        {
          "name": "",
          "type": "uint256"
        },
        {
          "name": "",
          "type": "uint256"
        }
      ],
      "payable": false,
      "stateMutability": "view",
      "type": "function"
    },
    {
      "constant": true,
      "inputs": [
        {
          "name": "_productId",
          "type": "uint256"
        }
      ],
      "name": "totalBids",
      "outputs": [
        {
          "name": "",
          "type": "uint256"
        }
      ],
      "payable": false,
      "stateMutability": "view",
      "type": "function"
    }
  ],
  "bytecode": "0x6060604052341561000f57600080fd5b60008081905550613dfc806100256000396000f3006060604052600436106100ba576000357c0100000000000000000000000000000000000000000000000000000000900463ffffffff16806328e3d190146100bf5780634389754a146100f657806383560525146101595780639a3a7c691461023b578063a508b9551461025e578063b9db15b4146103a8578063c897d5a6146105ce578063cc352db7146105f7578063ce818ea91461061a578063e80838631461068b578063ea1591bb146106ae578063f85f196e146106eb575b600080fd5b34156100ca57600080fd5b6100e06004808035906020019091905050610794565b6040518082815260200191505060405180910390f35b341561010157600080fd5b6101176004808035906020019091905050610bbc565b604051808273ffffffffffffffffffffffffffffffffffffffff1673ffffffffffffffffffffffffffffffffffffffff16815260200191505060405180910390f35b341561016457600080fd5b61017a6004808035906020019091905050610bf9565b604051808773ffffffffffffffffffffffffffffffffffffffff1673ffffffffffffffffffffffffffffffffffffffff1681526020018673ffffffffffffffffffffffffffffffffffffffff1673ffffffffffffffffffffffffffffffffffffffff1681526020018573ffffffffffffffffffffffffffffffffffffffff1673ffffffffffffffffffffffffffffffffffffffff16815260200184151515158152602001838152602001828152602001965050505050505060405180910390f35b341561024657600080fd5b61025c6004808035906020019091905050610cef565b005b341561026957600080fd5b6103a6600480803590602001908201803590602001908080601f0160208091040260200160405190810160405280939291908181526020018383808284378201915050505050509190803590602001908201803590602001908080601f0160208091040260200160405190810160405280939291908181526020018383808284378201915050505050509190803590602001908201803590602001908080601f0160208091040260200160405190810160405280939291908181526020018383808284378201915050505050509190803590602001908201803590602001908080601f01602080910402602001604051908101604052809392919081815260200183838082843782019150505050505091908035906020019091908035906020019091908035906020019091908035906020019091905050610dd3565b005b34156103b357600080fd5b6103c960048080359060200190919050506112b1565b604051808b8152602001806020018060200180602001806020018a815260200189815260200188815260200187600281111561040157fe5b60ff16815260200186600181111561041557fe5b60ff16815260200185810385528e818151815260200191508051906020019080838360005b8381101561045557808201518184015260208101905061043a565b50505050905090810190601f1680156104825780820380516001836020036101000a031916815260200191505b5085810384528d818151815260200191508051906020019080838360005b838110156104bb5780820151818401526020810190506104a0565b50505050905090810190601f1680156104e85780820380516001836020036101000a031916815260200191505b5085810383528c818151815260200191508051906020019080838360005b83811015610521578082015181840152602081019050610506565b50505050905090810190601f16801561054e5780820380516001836020036101000a031916815260200191505b5085810382528b818151815260200191508051906020019080838360005b8381101561058757808201518184015260208101905061056c565b50505050905090810190601f1680156105b45780820380516001836020036101000a031916815260200191505b509e50505050505050505050505050505060405180910390f35b34156105d957600080fd5b6105e1611755565b6040518082815260200191505060405180910390f35b341561060257600080fd5b610618600480803590602001909190505061175b565b005b341561062557600080fd5b61063b600480803590602001909190505061183f565b604051808473ffffffffffffffffffffffffffffffffffffffff1673ffffffffffffffffffffffffffffffffffffffff168152602001838152602001828152602001935050505060405180910390f35b341561069657600080fd5b6106ac6004808035906020019091905050611c7c565b005b6106d160048080359060200190919080356000191690602001909190505061238f565b604051808215151515815260200191505060405180910390f35b34156106f657600080fd5b610792600480803590602001909190803590602001908201803590602001908080601f0160208091040260200160405190810160405280939291908181526020018383808284378201915050505050509190803590602001908201803590602001908080601f01602080910402602001604051908101604052809392919081815260200183838082843782019150505050505091905050612622565b005b600061079e612d42565b600160006002600086815260200190815260200160002060009054906101000a900473ffffffffffffffffffffffffffffffffffffffff1673ffffffffffffffffffffffffffffffffffffffff1673ffffffffffffffffffffffffffffffffffffffff16815260200190815260200160002060008481526020019081526020016000206101c0604051908101604052908160008201548152602001600182018054600181600116156101000203166002900480601f0160208091040260200160405190810160405280929190818152602001828054600181600116156101000203166002900480156108d15780601f106108a6576101008083540402835291602001916108d1565b820191906000526020600020905b8154815290600101906020018083116108b457829003601f168201915b50505050508152602001600282018054600181600116156101000203166002900480601f0160208091040260200160405190810160405280929190818152602001828054600181600116156101000203166002900480156109735780601f1061094857610100808354040283529160200191610973565b820191906000526020600020905b81548152906001019060200180831161095657829003601f168201915b50505050508152602001600382018054600181600116156101000203166002900480601f016020809104026020016040519081016040528092919081815260200182805460018160011615610100020316600290048015610a155780601f106109ea57610100808354040283529160200191610a15565b820191906000526020600020905b8154815290600101906020018083116109f857829003601f168201915b50505050508152602001600482018054600181600116156101000203166002900480601f016020809104026020016040519081016040528092919081815260200182805460018160011615610100020316600290048015610ab75780601f10610a8c57610100808354040283529160200191610ab7565b820191906000526020600020905b815481529060010190602001808311610a9a57829003601f168201915b505050505081526020016005820154815260200160068201548152602001600782015481526020016008820160009054906101000a900473ffffffffffffffffffffffffffffffffffffffff1673ffffffffffffffffffffffffffffffffffffffff1673ffffffffffffffffffffffffffffffffffffffff16815260200160098201548152602001600a8201548152602001600b8201548152602001600c820160009054906101000a900460ff166002811115610b7057fe5b6002811115610b7b57fe5b8152602001600c820160019054906101000a900460ff166001811115610b9d57fe5b6001811115610ba857fe5b815250509050806101600151915050919050565b60006003600083815260200190815260200160002060009054906101000a900473ffffffffffffffffffffffffffffffffffffffff169050919050565b6000806000806000806003600088815260200190815260200160002060009054906101000a900473ffffffffffffffffffffffffffffffffffffffff1673ffffffffffffffffffffffffffffffffffffffff1663f3d25904600060405160c001526040518163ffffffff167c010000000000000000000000000000000000000000000000000000000002815260040160c060405180830381600087803b1515610ca157600080fd5b6102c65a03f11515610cb257600080fd5b5050506040518051906020018051906020018051906020018051906020018051906020018051905095509550955095509550955091939550919395565b6003600082815260200190815260200160002060009054906101000a900473ffffffffffffffffffffffffffffffffffffffff1673ffffffffffffffffffffffffffffffffffffffff166358aad10b336040518263ffffffff167c0100000000000000000000000000000000000000000000000000000000028152600401808273ffffffffffffffffffffffffffffffffffffffff1673ffffffffffffffffffffffffffffffffffffffff168152602001915050600060405180830381600087803b1515610dbc57600080fd5b6102c65a03f11515610dcd57600080fd5b50505050565b610ddb612d42565b8385101515610de957600080fd5b600160008082825401925050819055506101c06040519081016040528060005481526020018a8152602001898152602001888152602001878152602001868152602001858152602001848152602001600073ffffffffffffffffffffffffffffffffffffffff16815260200160008152602001600081526020016000815260200160006002811115610e7757fe5b8152602001836001811115610e8857fe5b6001811115610e9357fe5b815250905080600160003373ffffffffffffffffffffffffffffffffffffffff1673ffffffffffffffffffffffffffffffffffffffff168152602001908152602001600020600080548152602001908152602001600020600082015181600001556020820151816001019080519060200190610f10929190612df6565b506040820151816002019080519060200190610f2d929190612df6565b506060820151816003019080519060200190610f4a929190612df6565b506080820151816004019080519060200190610f67929190612df6565b5060a0820151816005015560c0820151816006015560e082015181600701556101008201518160080160006101000a81548173ffffffffffffffffffffffffffffffffffffffff021916908373ffffffffffffffffffffffffffffffffffffffff160217905550610120820151816009015561014082015181600a015561016082015181600b015561018082015181600c0160006101000a81548160ff0219169083600281111561101457fe5b02179055506101a082015181600c0160016101000a81548160ff0219169083600181111561103e57fe5b021790555090505033600260008054815260200190815260200160002060006101000a81548173ffffffffffffffffffffffffffffffffffffffff021916908373ffffffffffffffffffffffffffffffffffffffff1602179055507f7246fb63256d85d227c3255d8d4f49ff574a42ec76096803c81c0d6b58ac5a716000548a8a8a8a8a8a8a8a604051808a81526020018060200180602001806020018060200189815260200188815260200187815260200186815260200185810385528d818151815260200191508051906020019080838360005b8381101561112f578082015181840152602081019050611114565b50505050905090810190601f16801561115c5780820380516001836020036101000a031916815260200191505b5085810384528c818151815260200191508051906020019080838360005b8381101561119557808201518184015260208101905061117a565b50505050905090810190601f1680156111c25780820380516001836020036101000a031916815260200191505b5085810383528b818151815260200191508051906020019080838360005b838110156111fb5780820151818401526020810190506111e0565b50505050905090810190601f1680156112285780820380516001836020036101000a031916815260200191505b5085810382528a818151815260200191508051906020019080838360005b83811015611261578082015181840152602081019050611246565b50505050905090810190601f16801561128e5780820380516001836020036101000a031916815260200191505b509d505050505050505050505050505060405180910390a1505050505050505050565b60006112bb612e76565b6112c3612e76565b6112cb612e76565b6112d3612e76565b60008060008060006112e3612d42565b60016000600260008f815260200190815260200160002060009054906101000a900473ffffffffffffffffffffffffffffffffffffffff1673ffffffffffffffffffffffffffffffffffffffff1673ffffffffffffffffffffffffffffffffffffffff16815260200190815260200160002060008d81526020019081526020016000206101c0604051908101604052908160008201548152602001600182018054600181600116156101000203166002900480601f0160208091040260200160405190810160405280929190818152602001828054600181600116156101000203166002900480156114165780601f106113eb57610100808354040283529160200191611416565b820191906000526020600020905b8154815290600101906020018083116113f957829003601f168201915b50505050508152602001600282018054600181600116156101000203166002900480601f0160208091040260200160405190810160405280929190818152602001828054600181600116156101000203166002900480156114b85780601f1061148d576101008083540402835291602001916114b8565b820191906000526020600020905b81548152906001019060200180831161149b57829003601f168201915b50505050508152602001600382018054600181600116156101000203166002900480601f01602080910402602001604051908101604052809291908181526020018280546001816001161561010002031660029004801561155a5780601f1061152f5761010080835404028352916020019161155a565b820191906000526020600020905b81548152906001019060200180831161153d57829003601f168201915b50505050508152602001600482018054600181600116156101000203166002900480601f0160208091040260200160405190810160405280929190818152602001828054600181600116156101000203166002900480156115fc5780601f106115d1576101008083540402835291602001916115fc565b820191906000526020600020905b8154815290600101906020018083116115df57829003601f168201915b505050505081526020016005820154815260200160068201548152602001600782015481526020016008820160009054906101000a900473ffffffffffffffffffffffffffffffffffffffff1673ffffffffffffffffffffffffffffffffffffffff1673ffffffffffffffffffffffffffffffffffffffff16815260200160098201548152602001600a8201548152602001600b8201548152602001600c820160009054906101000a900460ff1660028111156116b557fe5b60028111156116c057fe5b8152602001600c820160019054906101000a900460ff1660018111156116e257fe5b60018111156116ed57fe5b815250509050806000015181602001518260400151836060015184608001518560a001518660c001518760e00151886101800151896101a001518898508797508696508595509a509a509a509a509a509a509a509a509a509a50509193959799509193959799565b60005481565b6003600082815260200190815260200160002060009054906101000a900473ffffffffffffffffffffffffffffffffffffffff1673ffffffffffffffffffffffffffffffffffffffff1663a97d1b10336040518263ffffffff167c0100000000000000000000000000000000000000000000000000000000028152600401808273ffffffffffffffffffffffffffffffffffffffff1673ffffffffffffffffffffffffffffffffffffffff168152602001915050600060405180830381600087803b151561182857600080fd5b6102c65a03f1151561183957600080fd5b50505050565b600080600061184c612d42565b600160006002600088815260200190815260200160002060009054906101000a900473ffffffffffffffffffffffffffffffffffffffff1673ffffffffffffffffffffffffffffffffffffffff1673ffffffffffffffffffffffffffffffffffffffff16815260200190815260200160002060008681526020019081526020016000206101c0604051908101604052908160008201548152602001600182018054600181600116156101000203166002900480601f01602080910402602001604051908101604052809291908181526020018280546001816001161561010002031660029004801561197f5780601f106119545761010080835404028352916020019161197f565b820191906000526020600020905b81548152906001019060200180831161196257829003601f168201915b50505050508152602001600282018054600181600116156101000203166002900480601f016020809104026020016040519081016040528092919081815260200182805460018160011615610100020316600290048015611a215780601f106119f657610100808354040283529160200191611a21565b820191906000526020600020905b815481529060010190602001808311611a0457829003601f168201915b50505050508152602001600382018054600181600116156101000203166002900480601f016020809104026020016040519081016040528092919081815260200182805460018160011615610100020316600290048015611ac35780601f10611a9857610100808354040283529160200191611ac3565b820191906000526020600020905b815481529060010190602001808311611aa657829003601f168201915b50505050508152602001600482018054600181600116156101000203166002900480601f016020809104026020016040519081016040528092919081815260200182805460018160011615610100020316600290048015611b655780601f10611b3a57610100808354040283529160200191611b65565b820191906000526020600020905b815481529060010190602001808311611b4857829003601f168201915b505050505081526020016005820154815260200160068201548152602001600782015481526020016008820160009054906101000a900473ffffffffffffffffffffffffffffffffffffffff1673ffffffffffffffffffffffffffffffffffffffff1673ffffffffffffffffffffffffffffffffffffffff16815260200160098201548152602001600a8201548152602001600b8201548152602001600c820160009054906101000a900460ff166002811115611c1e57fe5b6002811115611c2957fe5b8152602001600c820160019054906101000a900460ff166001811115611c4b57fe5b6001811115611c5657fe5b815250509050806101000151816101200151826101400151935093509350509193909250565b611c84612d42565b600080600160006002600087815260200190815260200160002060009054906101000a900473ffffffffffffffffffffffffffffffffffffffff1673ffffffffffffffffffffffffffffffffffffffff1673ffffffffffffffffffffffffffffffffffffffff16815260200190815260200160002060008581526020019081526020016000206101c0604051908101604052908160008201548152602001600182018054600181600116156101000203166002900480601f016020809104026020016040519081016040528092919081815260200182805460018160011615610100020316600290048015611dba5780601f10611d8f57610100808354040283529160200191611dba565b820191906000526020600020905b815481529060010190602001808311611d9d57829003601f168201915b50505050508152602001600282018054600181600116156101000203166002900480601f016020809104026020016040519081016040528092919081815260200182805460018160011615610100020316600290048015611e5c5780601f10611e3157610100808354040283529160200191611e5c565b820191906000526020600020905b815481529060010190602001808311611e3f57829003601f168201915b50505050508152602001600382018054600181600116156101000203166002900480601f016020809104026020016040519081016040528092919081815260200182805460018160011615610100020316600290048015611efe5780601f10611ed357610100808354040283529160200191611efe565b820191906000526020600020905b815481529060010190602001808311611ee157829003601f168201915b50505050508152602001600482018054600181600116156101000203166002900480601f016020809104026020016040519081016040528092919081815260200182805460018160011615610100020316600290048015611fa05780601f10611f7557610100808354040283529160200191611fa0565b820191906000526020600020905b815481529060010190602001808311611f8357829003601f168201915b505050505081526020016005820154815260200160068201548152602001600782015481526020016008820160009054906101000a900473ffffffffffffffffffffffffffffffffffffffff1673ffffffffffffffffffffffffffffffffffffffff1673ffffffffffffffffffffffffffffffffffffffff16815260200160098201548152602001600a8201548152602001600b8201548152602001600c820160009054906101000a900460ff16600281111561205957fe5b600281111561206457fe5b8152602001600c820160019054906101000a900460ff16600181111561208657fe5b600181111561209157fe5b8152505092508260c00151421115156120a957600080fd5b600060028111156120b657fe5b83610180015160028111156120c757fe5b1415156120d357600080fd5b3373ffffffffffffffffffffffffffffffffffffffff1683610100015173ffffffffffffffffffffffffffffffffffffffff161415151561211357600080fd5b3373ffffffffffffffffffffffffffffffffffffffff166002600086815260200190815260200160002060009054906101000a900473ffffffffffffffffffffffffffffffffffffffff1673ffffffffffffffffffffffffffffffffffffffff161415151561218157600080fd5b600083610160015114156121b857600283610180019060028111156121a257fe5b908160028111156121af57fe5b81525050612389565b826101400151848461010001516002600088815260200190815260200160002060009054906101000a900473ffffffffffffffffffffffffffffffffffffffff1633612202612e8a565b808581526020018473ffffffffffffffffffffffffffffffffffffffff1673ffffffffffffffffffffffffffffffffffffffff1681526020018373ffffffffffffffffffffffffffffffffffffffff1673ffffffffffffffffffffffffffffffffffffffff1681526020018273ffffffffffffffffffffffffffffffffffffffff1673ffffffffffffffffffffffffffffffffffffffff1681526020019450505050506040518091039082f08015156122ba57600080fd5b90509150816003600086815260200190815260200160002060006101000a81548173ffffffffffffffffffffffffffffffffffffffff021916908373ffffffffffffffffffffffffffffffffffffffff1602179055506001836101800190600281111561232357fe5b9081600281111561233057fe5b8152505082610140015183610120015103905082610100015173ffffffffffffffffffffffffffffffffffffffff166108fc829081150290604051600060405180830381858888f19350505050151561238857600080fd5b5b50505050565b600080600160006002600087815260200190815260200160002060009054906101000a900473ffffffffffffffffffffffffffffffffffffffff1673ffffffffffffffffffffffffffffffffffffffff1673ffffffffffffffffffffffffffffffffffffffff168152602001908152602001600020600085815260200190815260200160002090508060050154421015151561242a57600080fd5b8060060154421115151561243d57600080fd5b80600701543411151561244f57600080fd5b600081600d0160003373ffffffffffffffffffffffffffffffffffffffff1673ffffffffffffffffffffffffffffffffffffffff1681526020019081526020016000206000856000191660001916815260200190815260200160002060000160009054906101000a900473ffffffffffffffffffffffffffffffffffffffff1673ffffffffffffffffffffffffffffffffffffffff161415156124f157600080fd5b6080604051908101604052803373ffffffffffffffffffffffffffffffffffffffff1681526020018581526020013481526020016000151581525081600d0160003373ffffffffffffffffffffffffffffffffffffffff1673ffffffffffffffffffffffffffffffffffffffff1681526020019081526020016000206000856000191660001916815260200190815260200160002060008201518160000160006101000a81548173ffffffffffffffffffffffffffffffffffffffff021916908373ffffffffffffffffffffffffffffffffffffffff160217905550602082015181600101556040820151816002015560608201518160030160006101000a81548160ff021916908315150217905550905050600181600b0160008282540192505081905550600191505092915050565b60008061262d612e9a565b60008060016000600260008b815260200190815260200160002060009054906101000a900473ffffffffffffffffffffffffffffffffffffffff1673ffffffffffffffffffffffffffffffffffffffff1673ffffffffffffffffffffffffffffffffffffffff1681526020019081526020016000206000898152602001908152602001600020945086866040518083805190602001908083835b6020831015156126ec57805182526020820191506020810190506020830392506126c7565b6001836020036101000a03801982511681845116808217855250505050505090500182805190602001908083835b60208310151561273f578051825260208201915060208101905060208303925061271a565b6001836020036101000a038019825116818451168082178552505050505050905001925050506040518091039020935084600d0160003373ffffffffffffffffffffffffffffffffffffffff1673ffffffffffffffffffffffffffffffffffffffff16815260200190815260200160002060008560001916600019168152602001908152602001600020608060405190810160405290816000820160009054906101000a900473ffffffffffffffffffffffffffffffffffffffff1673ffffffffffffffffffffffffffffffffffffffff1673ffffffffffffffffffffffffffffffffffffffff16815260200160018201548152602001600282015481526020016003820160009054906101000a900460ff16151515158152505092506000836000015173ffffffffffffffffffffffffffffffffffffffff1611151561288557600080fd5b600015158360600151151514151561289c57600080fd5b6128a587612b32565b905080836040015110156128bf5782604001519150612a68565b60008560080160009054906101000a900473ffffffffffffffffffffffffffffffffffffffff1673ffffffffffffffffffffffffffffffffffffffff16141561296957338560080160006101000a81548173ffffffffffffffffffffffffffffffffffffffff021916908373ffffffffffffffffffffffffffffffffffffffff160217905550808560090181905550846007015485600a0181905550808360400151039150612a67565b8460090154811115612a4457846009015485600a01819055508460080160009054906101000a900473ffffffffffffffffffffffffffffffffffffffff1673ffffffffffffffffffffffffffffffffffffffff166108fc86600901549081150290604051600060405180830381858888f1935050505015156129ea57600080fd5b338560080160006101000a81548173ffffffffffffffffffffffffffffffffffffffff021916908373ffffffffffffffffffffffffffffffffffffffff160217905550808560090181905550808360400151039150612a66565b84600a0154811115612a61578085600a0181905550809150612a65565b8091505b5b5b5b600185600d0160003373ffffffffffffffffffffffffffffffffffffffff1673ffffffffffffffffffffffffffffffffffffffff1681526020019081526020016000206000866000191660001916815260200190815260200160002060030160006101000a81548160ff0219169083151502179055506000821115612b28573373ffffffffffffffffffffffffffffffffffffffff166108fc839081150290604051600060405180830381858888f193505050501515612b2757600080fd5b5b5050505050505050565b6000612b3c612edb565b60008084925060009150600090505b8251811015612d375760307f0100000000000000000000000000000000000000000000000000000000000000028382815181101515612b8657fe5b9060200101517f010000000000000000000000000000000000000000000000000000000000000090047f0100000000000000000000000000000000000000000000000000000000000000027effffffffffffffffffffffffffffffffffffffffffffffffffffffffffffff191610158015612c9e575060397f0100000000000000000000000000000000000000000000000000000000000000028382815181101515612c2e57fe5b9060200101517f010000000000000000000000000000000000000000000000000000000000000090047f0100000000000000000000000000000000000000000000000000000000000000027effffffffffffffffffffffffffffffffffffffffffffffffffffffffffffff191611155b15612d2a5760308382815181101515612cb357fe5b9060200101517f010000000000000000000000000000000000000000000000000000000000000090047f0100000000000000000000000000000000000000000000000000000000000000027f0100000000000000000000000000000000000000000000000000000000000000900403600a83020191505b8080600101915050612b4b565b819350505050919050565b6101c06040519081016040528060008152602001612d5e612eef565b8152602001612d6b612eef565b8152602001612d78612eef565b8152602001612d85612eef565b8152602001600081526020016000815260200160008152602001600073ffffffffffffffffffffffffffffffffffffffff16815260200160008152602001600081526020016000815260200160006002811115612dde57fe5b815260200160006001811115612df057fe5b81525090565b828054600181600116156101000203166002900490600052602060002090601f016020900481019282601f10612e3757805160ff1916838001178555612e65565b82800160010185558215612e65579182015b82811115612e64578251825591602001919060010190612e49565b5b509050612e729190612f03565b5090565b602060405190810160405280600081525090565b604051610ea880612f2983390190565b608060405190810160405280600073ffffffffffffffffffffffffffffffffffffffff16815260200160008152602001600081526020016000151581525090565b602060405190810160405280600081525090565b602060405190810160405280600081525090565b612f2591905b80821115612f21576000816000905550600101612f09565b5090565b9056006060604052604051608080610ea8833981016040528080519060200190919080519060200190919080519060200190919080519060200190919050508360008190555082600160006101000a81548173ffffffffffffffffffffffffffffffffffffffff021916908373ffffffffffffffffffffffffffffffffffffffff16021790555081600260006101000a81548173ffffffffffffffffffffffffffffffffffffffff021916908373ffffffffffffffffffffffffffffffffffffffff16021790555080600360006101000a81548173ffffffffffffffffffffffffffffffffffffffff021916908373ffffffffffffffffffffffffffffffffffffffff160217905550346004819055506000600560006101000a81548160ff0219169083151502179055507f7527d0b8d16913563c5afb8fa2dc5b6257355ff7dfbefbdcfc1cf812a0f97c5e84848484604051808581526020018473ffffffffffffffffffffffffffffffffffffffff1673ffffffffffffffffffffffffffffffffffffffff1681526020018373ffffffffffffffffffffffffffffffffffffffff1673ffffffffffffffffffffffffffffffffffffffff1681526020018273ffffffffffffffffffffffffffffffffffffffff1673ffffffffffffffffffffffffffffffffffffffff16815260200194505050505060405180910390a150505050610c9b8061020d6000396000f3006060604052600436106100af576000357c0100000000000000000000000000000000000000000000000000000000900463ffffffff16806308551a53146100b45780630bda4dbf1461010957806358aad10b146101325780637150d8ae1461016b578063a97d1b10146101c0578063aa8c217c146101f9578063b8d08db214610222578063c5ce39111461024b578063d1a52e3014610274578063f3d25904146102a1578063fe25e00a14610375575b600080fd5b34156100bf57600080fd5b6100c76103ca565b604051808273ffffffffffffffffffffffffffffffffffffffff1673ffffffffffffffffffffffffffffffffffffffff16815260200191505060405180910390f35b341561011457600080fd5b61011c6103f0565b6040518082815260200191505060405180910390f35b341561013d57600080fd5b610169600480803573ffffffffffffffffffffffffffffffffffffffff169060200190919050506103f6565b005b341561017657600080fd5b61017e6107ac565b604051808273ffffffffffffffffffffffffffffffffffffffff1673ffffffffffffffffffffffffffffffffffffffff16815260200191505060405180910390f35b34156101cb57600080fd5b6101f7600480803573ffffffffffffffffffffffffffffffffffffffff169060200190919050506107d2565b005b341561020457600080fd5b61020c610b88565b6040518082815260200191505060405180910390f35b341561022d57600080fd5b610235610b8e565b6040518082815260200191505060405180910390f35b341561025657600080fd5b61025e610b94565b6040518082815260200191505060405180910390f35b341561027f57600080fd5b610287610b9a565b604051808215151515815260200191505060405180910390f35b34156102ac57600080fd5b6102b4610bad565b604051808773ffffffffffffffffffffffffffffffffffffffff1673ffffffffffffffffffffffffffffffffffffffff1681526020018673ffffffffffffffffffffffffffffffffffffffff1673ffffffffffffffffffffffffffffffffffffffff1681526020018573ffffffffffffffffffffffffffffffffffffffff1673ffffffffffffffffffffffffffffffffffffffff16815260200184151515158152602001838152602001828152602001965050505050505060405180910390f35b341561038057600080fd5b610388610c49565b604051808273ffffffffffffffffffffffffffffffffffffffff1673ffffffffffffffffffffffffffffffffffffffff16815260200191505060405180910390f35b600260009054906101000a900473ffffffffffffffffffffffffffffffffffffffff1681565b60095481565b600560009054906101000a900460ff1615151561041257600080fd5b600160009054906101000a900473ffffffffffffffffffffffffffffffffffffffff1673ffffffffffffffffffffffffffffffffffffffff168173ffffffffffffffffffffffffffffffffffffffff1614806104bb5750600260009054906101000a900473ffffffffffffffffffffffffffffffffffffffff1673ffffffffffffffffffffffffffffffffffffffff168173ffffffffffffffffffffffffffffffffffffffff16145b806105135750600360009054906101000a900473ffffffffffffffffffffffffffffffffffffffff1673ffffffffffffffffffffffffffffffffffffffff168173ffffffffffffffffffffffffffffffffffffffff16145b8015610570575060011515600660008373ffffffffffffffffffffffffffffffffffffffff1673ffffffffffffffffffffffffffffffffffffffff16815260200190815260200160002060009054906101000a900460ff16151514155b15610685576001600660008373ffffffffffffffffffffffffffffffffffffffff1673ffffffffffffffffffffffffffffffffffffffff16815260200190815260200160002060006101000a81548160ff02191690831515021790555060016007600082825401925050819055507fe31e37941fee7dca6bb1597da71841499d8cd0dfc5553e0889f6d1ca6038ce966000548260405180838152602001806020018373ffffffffffffffffffffffffffffffffffffffff1673ffffffffffffffffffffffffffffffffffffffff168152602001828103825260078152602001807f72656c6561736500000000000000000000000000000000000000000000000000815250602001935050505060405180910390a15b600260075414156107a957600260009054906101000a900473ffffffffffffffffffffffffffffffffffffffff1673ffffffffffffffffffffffffffffffffffffffff166108fc6004549081150290604051600060405180830381858888f1935050505015156106f457600080fd5b6001600560006101000a81548160ff0219169083151502179055507fdde1058856b8611b1f49ef2ebaef10c0441e48e8a6cbbec1ebdcbfb1862b57b4600054600454600260009054906101000a900473ffffffffffffffffffffffffffffffffffffffff16604051808481526020018381526020018273ffffffffffffffffffffffffffffffffffffffff1673ffffffffffffffffffffffffffffffffffffffff168152602001935050505060405180910390a15b50565b600160009054906101000a900473ffffffffffffffffffffffffffffffffffffffff1681565b600560009054906101000a900460ff161515156107ee57600080fd5b600160009054906101000a900473ffffffffffffffffffffffffffffffffffffffff1673ffffffffffffffffffffffffffffffffffffffff168173ffffffffffffffffffffffffffffffffffffffff1614806108975750600260009054906101000a900473ffffffffffffffffffffffffffffffffffffffff1673ffffffffffffffffffffffffffffffffffffffff168173ffffffffffffffffffffffffffffffffffffffff16145b806108ef5750600360009054906101000a900473ffffffffffffffffffffffffffffffffffffffff1673ffffffffffffffffffffffffffffffffffffffff168173ffffffffffffffffffffffffffffffffffffffff16145b801561094c575060011515600860008373ffffffffffffffffffffffffffffffffffffffff1673ffffffffffffffffffffffffffffffffffffffff16815260200190815260200160002060009054906101000a900460ff16151514155b15610a61576001600860008373ffffffffffffffffffffffffffffffffffffffff1673ffffffffffffffffffffffffffffffffffffffff16815260200190815260200160002060006101000a81548160ff02191690831515021790555060016009600082825401925050819055507fe31e37941fee7dca6bb1597da71841499d8cd0dfc5553e0889f6d1ca6038ce966000548260405180838152602001806020018373ffffffffffffffffffffffffffffffffffffffff1673ffffffffffffffffffffffffffffffffffffffff168152602001828103825260068152602001807f726566756e640000000000000000000000000000000000000000000000000000815250602001935050505060405180910390a15b60026009541415610b8557600160009054906101000a900473ffffffffffffffffffffffffffffffffffffffff1673ffffffffffffffffffffffffffffffffffffffff166108fc6004549081150290604051600060405180830381858888f193505050501515610ad057600080fd5b6001600560006101000a81548160ff0219169083151502179055507fdde1058856b8611b1f49ef2ebaef10c0441e48e8a6cbbec1ebdcbfb1862b57b4600054600454600160009054906101000a900473ffffffffffffffffffffffffffffffffffffffff16604051808481526020018381526020018273ffffffffffffffffffffffffffffffffffffffff1673ffffffffffffffffffffffffffffffffffffffff168152602001935050505060405180910390a15b50565b60045481565b60075481565b60005481565b600560009054906101000a900460ff1681565b600080600080600080600160009054906101000a900473ffffffffffffffffffffffffffffffffffffffff16600260009054906101000a900473ffffffffffffffffffffffffffffffffffffffff16600360009054906101000a900473ffffffffffffffffffffffffffffffffffffffff16600560009054906101000a900460ff16600754600954955095509550955095509550909192939495565b600360009054906101000a900473ffffffffffffffffffffffffffffffffffffffff16815600a165627a7a7230582005c014a7fe146777ab462baa1cf0538b85484b8772a77b7cd5398993cb021a870029a165627a7a7230582071cc2d61b0690a765ec2b3e049d68ad112c5862fef6cbc04c17a123e0da07b020029",
  "source": "pragma solidity ^0.4.13;\nimport \"contracts/Escrow.sol\";\ncontract EcommerceStore {\n  //enum converts words to integers e.g. 0 = open\n enum ProductStatus { Open, Sold, Unsold }\n enum ProductCondition { New, Used }\n\n uint public productIndex;\n // mapping tracks the merchant account address\n mapping (address => mapping(uint => Product)) stores;\n mapping (uint => address) productIdInStore;\n //maps to escrowInfo\n mapping (uint => address) productEscrow;\n// The information the user enters about music product\n struct Product {\n  uint id;\n  string name;\n  string category;\n  string imageLink;\n  string descLink;\n  uint auctionStartTime;\n  uint auctionEndTime;\n  uint startPrice;\n  address highestBidder;\n  uint highestBid;\n  uint secondHighestBid;\n  uint totalBids;\n  ProductStatus status;\n  ProductCondition condition;\n  //tracks which users bid and what they bid\n  mapping (address => mapping (bytes32 => Bid)) bids;\n }\n\n struct Bid {\n   address bidder;\n   uint productId;\n   uint value;\n   bool revealed;\n }\n\n//escrow\n function finalizeAuction(uint _productId) public {\n  Product memory product = stores[productIdInStore[_productId]][_productId];\n  // 48 hours to reveal the bid\n  require(now > product.auctionEndTime);\n  require(product.status == ProductStatus.Open);\n  require(product.highestBidder != msg.sender);\n  require(productIdInStore[_productId] != msg.sender);\n\n  if (product.totalBids == 0) {\n   product.status = ProductStatus.Unsold;\n  } else {\n   // Whoever finalizes the auction is the arbiter\n   Escrow escrow = (new Escrow).value(product.secondHighestBid)(_productId, product.highestBidder, productIdInStore[_productId], msg.sender);\n   productEscrow[_productId] = address(escrow);\n   product.status = ProductStatus.Sold;\n   // The bidder only pays the amount equivalent to second highest bidder\n   // Refund the difference\n   uint refund = product.highestBid - product.secondHighestBid;\n   product.highestBidder.transfer(refund);\n\n  }\n  }\n\n  function releaseAmountToSeller(uint _productId) public {\n    Escrow(productEscrow[_productId]).releaseAmountToSeller(msg.sender);\n  }\n\n  function refundAmountToBuyer(uint _productId) public {\n    Escrow(productEscrow[_productId]).refundAmountToBuyer(msg.sender);\n  }\n\n  function escrowAddressForProduct(uint _productId) view public returns (address) {\n  return productEscrow[_productId];\n  }\n\n  function escrowInfo(uint _productId) view public returns (address, address, address, bool, uint, uint) {\n  return Escrow(productEscrow[_productId]).escrowInfo();\n }\n /////\n function EcommerceStore() public {\n  productIndex = 0; //increments by 1\n }\n event NewProduct(uint _productId, string _name, string _category, string _imageLink, string _descLink, uint _auctionStartTime, uint _auctionEndTime, uint _startPrice, uint _productCondition);\n function addProductToStore(string _name, string _category, string _imageLink, string _descLink, uint _auctionStartTime,\n  uint _auctionEndTime, uint _startPrice, uint _productCondition) public {\n\n    //validates auction start time less than end time\n  require (_auctionStartTime < _auctionEndTime);\n  productIndex += 1; // the increment as shown above ^\n  //product struct initaliser\n  Product memory product = Product(productIndex, _name, _category, _imageLink, _descLink, _auctionStartTime, _auctionEndTime,\n                   _startPrice, 0, 0, 0, 0, ProductStatus.Open, ProductCondition(_productCondition));\n//stores the initaliser\n  stores[msg.sender][productIndex] = product;\n  //tracks who added the product\n  productIdInStore[productIndex] = msg.sender;\n\n  NewProduct(productIndex, _name, _category, _imageLink, _descLink, _auctionStartTime, _auctionEndTime, _startPrice, _productCondition);\n}\n// returns product details using product id\nfunction getProduct(uint _productId) view public returns (uint, string, string, string, string, uint, uint, uint, ProductStatus, ProductCondition) {\n  Product memory product = stores[productIdInStore[_productId]][_productId]; // memory tells EVM object variable is temporary, cleared after function executed\n  return (product.id, product.name, product.category, product.imageLink, product.descLink, product.auctionStartTime,\n      product.auctionEndTime, product.startPrice, product.status, product.condition);\n    }\n//retrieve product from stores map & build the big struct and add it to mapping from initaliser\nfunction bid(uint _productId, bytes32 _bid) payable public returns (bool) {\n  Product storage product = stores[productIdInStore[_productId]][_productId];\n  require (now >= product.auctionStartTime); //now is the current blocks timestamp\n  require (now <= product.auctionEndTime);\n  require (msg.value > product.startPrice);\n  require (product.bids[msg.sender][_bid].bidder == 0);\n  product.bids[msg.sender][_bid] = Bid(msg.sender, _productId, msg.value, false);\n  product.totalBids += 1;\n  return true;\n    }\nfunction revealBid(uint _productId, string _amount, string _secret) public {\n  Product storage product = stores[productIdInStore[_productId]][_productId];\n  bytes32 sealedBid = sha3(_amount, _secret); //hidden bid (private to bidder)\n\n  Bid memory bidInfo = product.bids[msg.sender][sealedBid];\n  require (bidInfo.bidder > 0); //bidder must bid something before reavealing\n  require (bidInfo.revealed == false);\n\n  uint refund;\n\n  uint amount = stringToUint(_amount);\n\n if(bidInfo.value < amount) {\n// They didn't send enough amount, they lost\n  refund = bidInfo.value;\n  } else {\n// If first to reveal set as highest bidder\n if (address(product.highestBidder) == 0) {\n product.highestBidder = msg.sender;\n product.highestBid = amount;\n product.secondHighestBid = product.startPrice;\n refund = bidInfo.value - amount;\n} else {\n if (amount > product.highestBid) {\n  product.secondHighestBid = product.highestBid;\n  product.highestBidder.transfer(product.highestBid);\n  product.highestBidder = msg.sender;\n  product.highestBid = amount;\n  refund = bidInfo.value - amount;\n } else if (amount > product.secondHighestBid) {\n  product.secondHighestBid = amount;\n  refund = amount;\n } else {\n  refund = amount;\n }\n}\n}\nproduct.bids[msg.sender][sealedBid].revealed = true;\n\nif (refund > 0) {\n  msg.sender.transfer(refund);\n}\n}\n//gets highest bidder (getter) - to display on webpage and for testing\nfunction highestBidderInfo(uint _productId) view public returns (address, uint, uint) {\n  Product memory product = stores[productIdInStore[_productId]][_productId];\n  return (product.highestBidder, product.highestBid, product.secondHighestBid);\n}\n\nfunction totalBids(uint _productId) view public returns (uint) {\n  Product memory product = stores[productIdInStore[_productId]][_productId];\n  return product.totalBids;\n}\n\nfunction stringToUint(string s) pure private returns (uint) {\n  bytes memory b = bytes(s);\n  uint result = 0;\n  for (uint i = 0; i < b.length; i++) {\n    if (b[i] >= 48 && b[i] <= 57) {\n      result = result * 10 + (uint(b[i]) - 48);\n    }\n  }\n  return result;\n}\n  }\n",
  "sourcePath": "/Users/robertjameson/Desktop/music_dapp/contracts/EcommerceStore.sol",
  "compiler": {
    "name": "solc",
    "version": "0.4.19+commit.c4cbbb05.Emscripten.clang"
  },
  "schemaVersion": "2.0.0",
  "updatedAt": "2018-04-25T13:23:05.756Z"
}